{
  "contractName": "EventTicketsV2",
  "abi": [
    {
      "constant": true,
      "inputs": [],
      "name": "owner",
      "outputs": [
        {
          "name": "",
          "type": "address"
        }
      ],
      "payable": false,
      "stateMutability": "view",
      "type": "function"
    },
    {
      "constant": true,
      "inputs": [],
      "name": "idGenerator",
      "outputs": [
        {
          "name": "",
          "type": "uint256"
        }
      ],
      "payable": false,
      "stateMutability": "view",
      "type": "function"
    },
    {
      "inputs": [],
      "payable": false,
      "stateMutability": "nonpayable",
      "type": "constructor"
    },
    {
      "anonymous": false,
      "inputs": [
        {
          "indexed": false,
          "name": "desc",
          "type": "string"
        },
        {
          "indexed": false,
          "name": "url",
          "type": "string"
        },
        {
          "indexed": false,
          "name": "ticketsAvailable",
          "type": "uint256"
        },
        {
          "indexed": false,
          "name": "eventId",
          "type": "uint256"
        }
      ],
      "name": "LogEventAdded",
      "type": "event"
    },
    {
      "anonymous": false,
      "inputs": [
        {
          "indexed": false,
          "name": "buyer",
          "type": "address"
        },
        {
          "indexed": false,
          "name": "eventId",
          "type": "uint256"
        },
        {
          "indexed": false,
          "name": "numTickets",
          "type": "uint256"
        }
      ],
      "name": "LogBuyTickets",
      "type": "event"
    },
    {
      "anonymous": false,
      "inputs": [
        {
          "indexed": false,
          "name": "accountRefunded",
          "type": "address"
        },
        {
          "indexed": false,
          "name": "eventId",
          "type": "uint256"
        },
        {
          "indexed": false,
          "name": "numTickets",
          "type": "uint256"
        }
      ],
      "name": "LogGetRefund",
      "type": "event"
    },
    {
      "anonymous": false,
      "inputs": [
        {
          "indexed": false,
          "name": "owner",
          "type": "address"
        },
        {
          "indexed": false,
          "name": "balance",
          "type": "uint256"
        },
        {
          "indexed": false,
          "name": "eventId",
          "type": "uint256"
        }
      ],
      "name": "LogEndSale",
      "type": "event"
    },
    {
      "constant": false,
      "inputs": [
        {
          "name": "_description",
          "type": "string"
        },
        {
          "name": "_website",
          "type": "string"
        },
        {
          "name": "_totalTickets",
          "type": "uint256"
        }
      ],
      "name": "addEvent",
      "outputs": [
        {
          "name": "",
          "type": "uint256"
        }
      ],
      "payable": false,
      "stateMutability": "nonpayable",
      "type": "function"
    },
    {
      "constant": true,
      "inputs": [
        {
          "name": "eventId",
          "type": "uint256"
        }
      ],
      "name": "readEvent",
      "outputs": [
        {
          "name": "",
          "type": "string"
        },
        {
          "name": "",
          "type": "string"
        },
        {
          "name": "",
          "type": "uint256"
        },
        {
          "name": "",
          "type": "uint256"
        },
        {
          "name": "",
          "type": "bool"
        }
      ],
      "payable": false,
      "stateMutability": "view",
      "type": "function"
    },
    {
      "constant": false,
      "inputs": [
        {
          "name": "eventId",
          "type": "uint256"
        },
        {
          "name": "numTicketsPurchased",
          "type": "uint256"
        }
      ],
      "name": "buyTickets",
      "outputs": [],
      "payable": true,
      "stateMutability": "payable",
      "type": "function"
    },
    {
      "constant": false,
      "inputs": [
        {
          "name": "eventId",
          "type": "uint256"
        }
      ],
      "name": "getRefund",
      "outputs": [],
      "payable": true,
      "stateMutability": "payable",
      "type": "function"
    },
    {
      "constant": true,
      "inputs": [
        {
          "name": "eventId",
          "type": "uint256"
        }
      ],
      "name": "getBuyerNumberTickets",
      "outputs": [
        {
          "name": "",
          "type": "uint256"
        }
      ],
      "payable": false,
      "stateMutability": "view",
      "type": "function"
    },
    {
      "constant": false,
      "inputs": [
        {
          "name": "eventId",
          "type": "uint256"
        }
      ],
      "name": "endSale",
      "outputs": [],
      "payable": false,
      "stateMutability": "nonpayable",
      "type": "function"
    }
  ],
  "bytecode": "0x6080604052606460015534801561001557600080fd5b50336000806101000a81548173ffffffffffffffffffffffffffffffffffffffff021916908373ffffffffffffffffffffffffffffffffffffffff160217905550610f7a806100656000396000f3fe60806040526004361061007b5760003560e01c80638da5cb5b1161004e5780638da5cb5b146102bf578063d2f0be9914610316578063e1ba30a914610344578063e7bd92b91461047d5761007b565b806304d1a846146100805780633ddedd38146100bb5780634da19f201461010a5780638627df4614610287575b600080fd5b34801561008c57600080fd5b506100b9600480360360208110156100a357600080fd5b81019080803590602001909291905050506104a8565b005b3480156100c757600080fd5b506100f4600480360360208110156100de57600080fd5b810190808035906020019092919050505061064f565b6040518082815260200191505060405180910390f35b34801561011657600080fd5b506102716004803603606081101561012d57600080fd5b810190808035906020019064010000000081111561014a57600080fd5b82018360208201111561015c57600080fd5b8035906020019184600183028401116401000000008311171561017e57600080fd5b91908080601f016020809104026020016040519081016040528093929190818152602001838380828437600081840152601f19601f820116905080830192505050505050509192919290803590602001906401000000008111156101e157600080fd5b8201836020820111156101f357600080fd5b8035906020019184600183028401116401000000008311171561021557600080fd5b91908080601f016020809104026020016040519081016040528093929190818152602001838380828437600081840152601f19601f820116905080830192505050505050509192919290803590602001909291905050506106ac565b6040518082815260200191505060405180910390f35b6102bd6004803603604081101561029d57600080fd5b810190808035906020019092919080359060200190929190505050610903565b005b3480156102cb57600080fd5b506102d4610ad8565b604051808273ffffffffffffffffffffffffffffffffffffffff1673ffffffffffffffffffffffffffffffffffffffff16815260200191505060405180910390f35b6103426004803603602081101561032c57600080fd5b8101908080359060200190929190505050610afd565b005b34801561035057600080fd5b5061037d6004803603602081101561036757600080fd5b8101908080359060200190929190505050610ca1565b60405180806020018060200186815260200185815260200184151515158152602001838103835288818151815260200191508051906020019080838360005b838110156103d75780820151818401526020810190506103bc565b50505050905090810190601f1680156104045780820380516001836020036101000a031916815260200191505b50838103825287818151815260200191508051906020019080838360005b8381101561043d578082015181840152602081019050610422565b50505050905090810190601f16801561046a5780820380516001836020036101000a031916815260200191505b5097505050505050505060405180910390f35b34801561048957600080fd5b50610492610e72565b6040518082815260200191505060405180910390f35b6000809054906101000a900473ffffffffffffffffffffffffffffffffffffffff1673ffffffffffffffffffffffffffffffffffffffff163373ffffffffffffffffffffffffffffffffffffffff161461050157600080fd5b60006003600083815260200190815260200160002060050160006101000a81548160ff021916908315150217905550600060015460036000848152602001908152602001600020600301540290506000809054906101000a900473ffffffffffffffffffffffffffffffffffffffff1673ffffffffffffffffffffffffffffffffffffffff166108fc829081150290604051600060405180830381858888f193505050501580156105b6573d6000803e3d6000fd5b507f6497e6dff32a753fe6b3a2b3430e5f86d65c6e35cf360d52eb3494711d7d7a1c6000809054906101000a900473ffffffffffffffffffffffffffffffffffffffff168284604051808473ffffffffffffffffffffffffffffffffffffffff1673ffffffffffffffffffffffffffffffffffffffff168152602001838152602001828152602001935050505060405180910390a15050565b60006003600083815260200190815260200160002060040160003373ffffffffffffffffffffffffffffffffffffffff1673ffffffffffffffffffffffffffffffffffffffff168152602001908152602001600020549050919050565b60008060009054906101000a900473ffffffffffffffffffffffffffffffffffffffff1673ffffffffffffffffffffffffffffffffffffffff163373ffffffffffffffffffffffffffffffffffffffff161461070757600080fd5b61070f610e78565b84816000018190525083816020018190525082816040018181525050600181608001901515908115158152505080600360006002548152602001908152602001600020600082015181600001908051906020019061076e929190610ea9565b50602082015181600101908051906020019061078b929190610ea9565b50604082015181600201556060820151816003015560808201518160050160006101000a81548160ff0219169083151502179055509050506002600081548092919060010191905055507f7d1d82c13762b51876068c852c5d404d0fa38fb615c14eebefafb60bdb4bd1b2858585600160025403604051808060200180602001858152602001848152602001838103835287818151815260200191508051906020019080838360005b8381101561084f578082015181840152602081019050610834565b50505050905090810190601f16801561087c5780820380516001836020036101000a031916815260200191505b50838103825286818151815260200191508051906020019080838360005b838110156108b557808201518184015260208101905061089a565b50505050905090810190601f1680156108e25780820380516001836020036101000a031916815260200191505b50965050505050505060405180910390a16001600254039150509392505050565b6003600083815260200190815260200160002060050160009054906101000a900460ff1661093057600080fd5b600154810234101561094157600080fd5b600360008381526020019081526020016000206003015481016003600084815260200190815260200160002060020154101561097c57600080fd5b806003600084815260200190815260200160002060040160003373ffffffffffffffffffffffffffffffffffffffff1673ffffffffffffffffffffffffffffffffffffffff168152602001908152602001600020600082825401925050819055508060036000848152602001908152602001600020600301600082825401925050819055506001548102341115610a615760006001548202340390503373ffffffffffffffffffffffffffffffffffffffff166108fc829081150290604051600060405180830381858888f19350505050158015610a5e573d6000803e3d6000fd5b50505b7f15827fa78fedf80f93aa72ce61e705b1362cab60ae596b1bb327076fc3856c24338383604051808473ffffffffffffffffffffffffffffffffffffffff1673ffffffffffffffffffffffffffffffffffffffff168152602001838152602001828152602001935050505060405180910390a15050565b6000809054906101000a900473ffffffffffffffffffffffffffffffffffffffff1681565b60006003600083815260200190815260200160002060040160003373ffffffffffffffffffffffffffffffffffffffff1673ffffffffffffffffffffffffffffffffffffffff1681526020019081526020016000205411610b5d57600080fd5b60006003600083815260200190815260200160002060040160003373ffffffffffffffffffffffffffffffffffffffff1673ffffffffffffffffffffffffffffffffffffffff1681526020019081526020016000205490508060036000848152602001908152602001600020600301600082825403925050819055506000600154820290503373ffffffffffffffffffffffffffffffffffffffff166108fc829081150290604051600060405180830381858888f19350505050158015610c28573d6000803e3d6000fd5b507f73ebb2050cb3ee6869929e7a26925e92e201f14902e155037f1f90af931b3233338484604051808473ffffffffffffffffffffffffffffffffffffffff1673ffffffffffffffffffffffffffffffffffffffff168152602001838152602001828152602001935050505060405180910390a1505050565b606080600080600060036000878152602001908152602001600020600001600360008881526020019081526020016000206001016003600089815260200190815260200160002060020154600360008a815260200190815260200160002060030154600360008b815260200190815260200160002060050160009054906101000a900460ff16848054600181600116156101000203166002900480601f016020809104026020016040519081016040528092919081815260200182805460018160011615610100020316600290048015610dbc5780601f10610d9157610100808354040283529160200191610dbc565b820191906000526020600020905b815481529060010190602001808311610d9f57829003601f168201915b50505050509450838054600181600116156101000203166002900480601f016020809104026020016040519081016040528092919081815260200182805460018160011615610100020316600290048015610e585780601f10610e2d57610100808354040283529160200191610e58565b820191906000526020600020905b815481529060010190602001808311610e3b57829003601f168201915b505050505093509450945094509450945091939590929450565b60025481565b6040518060a00160405280606081526020016060815260200160008152602001600081526020016000151581525090565b828054600181600116156101000203166002900490600052602060002090601f016020900481019282601f10610eea57805160ff1916838001178555610f18565b82800160010185558215610f18579182015b82811115610f17578251825591602001919060010190610efc565b5b509050610f259190610f29565b5090565b610f4b91905b80821115610f47576000816000905550600101610f2f565b5090565b9056fea165627a7a7230582095965b1ea609562c5a383ff10da73e256ef02af46cc0ed2def7f83287046b4810029",
  "source": "pragma solidity ^0.5.0;\n\n    /*\n        The EventTicketsV2 contract keeps track of the details and ticket sales of multiple events.\n     */\ncontract EventTicketsV2 {\n\n    /*\n        Define an public owner variable. Set it to the creator of the contract when it is initialized.\n    */\n    address payable public owner;\n    uint   PRICE_TICKET = 100 wei;\n\n\n\n    /*\n        Create a variable to keep track of the event ID numbers.\n    */\n    uint public idGenerator;\n\n    /*\n        Define an Event struct, similar to the V1 of this contract.\n        The struct has 6 fields: description, website (URL), totalTickets, sales, buyers, and isOpen.\n        Choose the appropriate variable type for each field.\n        The \"buyers\" field should keep track of addresses and how many tickets each buyer purchases.\n    */\n    struct Event {\n      string description;\n      string website;\n      uint totalTickets;\n      uint sales;\n      mapping (address => uint) buyers;\n      bool isOpen;\n    }\n    /*\n        Create a mapping to keep track of the events.\n        The mapping key is an integer, the value is an Event struct.\n        Call the mapping \"events\".\n    */\n    mapping (uint => Event) events;\n\n\n    event LogEventAdded(string desc, string url, uint ticketsAvailable, uint eventId);\n    event LogBuyTickets(address buyer, uint eventId, uint numTickets);\n    event LogGetRefund(address accountRefunded, uint eventId, uint numTickets);\n    event LogEndSale(address owner, uint balance, uint eventId);\n\n    /*\n        Create a modifier that throws an error if the msg.sender is not the owner.\n    */\n    modifier isOwner() {\n      if(msg.sender != owner) { revert(); } _;\n    }\n\n\n    /*\n        Define a function called addEvent().\n        This function takes 3 parameters, an event description, a URL, and a number of tickets.\n        Only the contract owner should be able to call this function.\n        In the function:\n            - Set the description, URL and ticket number in a new event.\n            - set the event to open\n            - set an event ID\n            - increment the ID\n            - emit the appropriate event\n            - return the event's ID\n    */\n    constructor() public {\n      owner = msg.sender;\n    }\n\n    function addEvent (string memory _description, string memory _website, uint _totalTickets)\n    public\n    isOwner()\n    returns (uint)\n      {\n      Event memory newEvent;\n      newEvent.description = _description;\n      newEvent.website = _website;\n      newEvent.totalTickets = _totalTickets;\n      newEvent.isOpen = true;\n      events[idGenerator] = newEvent;\n      idGenerator++;\n      emit LogEventAdded(_description, _website, _totalTickets, idGenerator - 1);\n      return(idGenerator - 1);\n    }\n\n//Here I think it should rather be idGenerator - 1, but it raises an error..\n\n    /*\n        Define a function called readEvent().\n        This function takes one parameter, the event ID.\n        The function returns information about the event this order:\n            1. description\n            2. URL\n            3. tickets available\n            4. sales\n            5. isOpen\n    */\n    function readEvent (uint eventId) public view\n    returns (string memory, string memory, uint, uint, bool)\n      {\n      return(events[eventId].description,\n        events[eventId].website,\n        events[eventId].totalTickets,\n        events[eventId].sales, events[eventId].isOpen);\n    }\n\n\n    /*\n        Define a function called buyTickets().\n        This function allows users to buy tickets for a specific event.\n        This function takes 2 parameters, an event ID and a number of tickets.\n        The function checks:\n            - that the event sales are open\n            - that the transaction value is sufficient to purchase the number of tickets\n            - that there are enough tickets available to complete the purchase\n        The function:\n            - increments the purchasers ticket count\n            - increments the ticket sale count\n            - refunds any surplus value sent\n            - emits the appropriate event\n    */\n\n    function buyTickets (uint eventId, uint numTicketsPurchased)\n    public payable\n    {\n      require(events[eventId].isOpen);\n      require(msg.value >= numTicketsPurchased * PRICE_TICKET);\n      require(events[eventId].totalTickets >= numTicketsPurchased + events[eventId].sales);\n      events[eventId].buyers[msg.sender] += numTicketsPurchased;\n      events[eventId].sales += numTicketsPurchased;\n\n      if(msg.value > numTicketsPurchased * PRICE_TICKET) {\n        uint refundcost = msg.value - numTicketsPurchased * PRICE_TICKET;\n        msg.sender.transfer(refundcost);\n      }\n      emit LogBuyTickets(msg.sender, eventId, numTicketsPurchased);\n    }\n\n\n    /*\n        Define a function called getRefund().\n        This function allows users to request a refund for a specific event.\n        This function takes one parameter, the event ID.\n        TODO:\n            - check that a user has purchased tickets for the event\n            - remove refunded tickets from the sold count\n            - send appropriate value to the refund requester\n            - emit the appropriate event\n    */\n\n    function getRefund (uint eventId) public payable\n     {\n      require(events[eventId].buyers[msg.sender] > 0);\n      uint numticketsrefunded = events[eventId].buyers[msg.sender];\n      events[eventId].sales -= numticketsrefunded;\n      uint refundedamount = numticketsrefunded * PRICE_TICKET;\n      msg.sender.transfer(refundedamount);\n      emit LogGetRefund(msg.sender, eventId, numticketsrefunded);\n    }\n\n    /*\n        Define a function called getBuyerNumberTickets()\n        This function takes one parameter, an event ID\n        This function returns a uint, the number of tickets that the msg.sender has purchased.\n    */\n    function getBuyerNumberTickets (uint eventId) public view\n    returns (uint)\n    {\n      return(events[eventId].buyers[msg.sender]);\n    }\n\n    /*\n        Define a function called endSale()\n        This function takes one parameter, the event ID\n        Only the contract owner can call this function\n        TODO:\n            - close event sales\n            - transfer the balance from those event sales to the contract owner\n            - emit the appropriate event\n    */\n    function endSale (uint eventId) public\n      isOwner()\n    {\n    events[eventId].isOpen = false;\n    uint revenues = events[eventId].sales * PRICE_TICKET;\n    owner.transfer(revenues);\n    emit LogEndSale(owner, revenues, eventId);\n  }\n}\n",
  "sourcePath": "/Users/victorgardrinier/code/MyPrivateBlockchain/event-tickets-exercise-vgardrinier/contracts/EventTicketsV2.sol",
  "compiler": {
    "name": "solc",
    "version": "0.5.8+commit.23d335f2.Emscripten.clang"
  },
  "schemaVersion": "3.0.11",
  "updatedAt": "2019-07-27T10:45:25.827Z",
  "devdoc": {
    "methods": {}
  },
  "userdoc": {
    "methods": {}
  }
}